{
  "transactions": [
    {
      "hash": "0xbd4079359aa8a9f7edd7d33c880b76a6af3a016d4ec76b82aa6c45fca35ca954",
      "transactionType": "CALL",
      "contractName": "DeployTellerAS",
      "contractAddress": "0xC7f2Cf4845C6db0e1a1e91ED41Bcd0FcC1b0E141",
      "function": "run():(address)",
      "arguments": [],
      "rpc": "http://localhost:8545",
      "transaction": {
        "type": "0x02",
        "from": "0xf39fd6e51aad88f6f4ce6ab8827279cfffb92266",
        "to": "0xc7f2cf4845c6db0e1a1e91ed41bcd0fcc1b0e141",
        "gas": "0x71a6",
        "value": "0x0",
        "data": "0xc0406226",
        "nonce": "0x4",
        "accessList": []
      },
      "additionalContracts": []
    },
    {
      "hash": "0xbe55f5b9c9e1268a511effdb531a9d666248ce9155575e09a8ee08b76d4c107f",
      "transactionType": "CALL",
      "contractName": "DeployMarketRegistry",
      "contractAddress": "0xdaE97900D4B184c5D2012dcdB658c008966466DD",
      "function": "run(address):(address)",
      "arguments": [
        "0x67cDE3E2d3e6e9d5413bD1Ecb01DC71BA3cF86E7"
      ],
      "rpc": "http://localhost:8545",
      "transaction": {
        "type": "0x02",
        "from": "0xf39fd6e51aad88f6f4ce6ab8827279cfffb92266",
        "to": "0xdae97900d4b184c5d2012dcdb658c008966466dd",
        "gas": "0x73a2",
        "value": "0x0",
        "data": "0x522bb70400000000000000000000000067cde3e2d3e6e9d5413bd1ecb01dc71ba3cf86e7",
        "nonce": "0x5",
        "accessList": []
      },
      "additionalContracts": []
    },
    {
      "hash": "0xe6778f50b8f9b39a36aa7fd5afbced98e1690e456c968e5f005ae66450bad602",
      "transactionType": "CALL",
      "contractName": "DeployTellerV2",
      "contractAddress": "0x238213078DbD09f2D15F4c14c02300FA1b2A81BB",
      "function": "run(address):(address)",
      "arguments": [
        "0xb0b8c7cCc64be9aa9B5712BBEc5a5BD0a3213059"
      ],
      "rpc": "http://localhost:8545",
      "transaction": {
        "type": "0x02",
        "from": "0xf39fd6e51aad88f6f4ce6ab8827279cfffb92266",
        "to": "0x238213078dbd09f2d15f4c14c02300fa1b2a81bb",
        "gas": "0x73a2",
        "value": "0x0",
        "data": "0x522bb704000000000000000000000000b0b8c7ccc64be9aa9b5712bbec5a5bd0a3213059",
        "nonce": "0x6",
        "accessList": []
      },
      "additionalContracts": []
    },
    {
      "hash": "0x60253d2f3a58e7779e95ef35e4d8146f453e10e9ca2004f96d045ae9057d73ea",
      "transactionType": "CALL",
      "contractName": "DeployTlrToken",
      "contractAddress": "0xd85BdcdaE4db1FAEB8eF93331525FE68D7C8B3f0",
      "function": "run():(address)",
      "arguments": [],
      "rpc": "http://localhost:8545",
      "transaction": {
        "type": "0x02",
        "from": "0xf39fd6e51aad88f6f4ce6ab8827279cfffb92266",
        "to": "0xd85bdcdae4db1faeb8ef93331525fe68d7c8b3f0",
        "gas": "0x71a6",
        "value": "0x0",
        "data": "0xc0406226",
        "nonce": "0x7",
        "accessList": []
      },
      "additionalContracts": []
    },
    {
      "hash": "0x7ec78fbee81e7baaf93e11e4c8bca4cb853bca0a859a2575cf04bc5e89680924",
      "transactionType": "CALL",
      "contractName": "DeployAutopay",
      "contractAddress": "0xDc82c0362A241Aa94d53546648EACe48C9773dAa",
      "function": "run():(address)",
      "arguments": [],
      "rpc": "http://localhost:8545",
      "transaction": {
        "type": "0x02",
        "from": "0xf39fd6e51aad88f6f4ce6ab8827279cfffb92266",
        "to": "0xdc82c0362a241aa94d53546648eace48c9773daa",
        "gas": "0x71a6",
        "value": "0x0",
        "data": "0xc0406226",
        "nonce": "0x8",
        "accessList": []
      },
      "additionalContracts": []
    }
  ],
  "receipts": [
    {
      "transactionHash": "0xbd4079359aa8a9f7edd7d33c880b76a6af3a016d4ec76b82aa6c45fca35ca954",
      "transactionIndex": "0x0",
      "blockHash": "0xd6035e8eae9a20e73cd7c43d0ac76b16245de963789381fab97b8ecfd6894213",
      "blockNumber": "0x5",
      "from": "0xf39Fd6e51aad88F6F4ce6aB8827279cffFb92266",
      "to": "0xC7f2Cf4845C6db0e1a1e91ED41Bcd0FcC1b0E141",
      "cumulativeGasUsed": "0x5248",
      "gasUsed": "0x5248",
      "contractAddress": null,
      "logs": [],
      "status": "0x1",
      "logsBloom": "0x00000000000000000000000000000000000000000000000000000000000000000000000000000000000000000000000000000000000000000000000000000000000000000000000000000000000000000000000000000000000000000000000000000000000000000000000000000000000000000000000000000000000000000000000000000000000000000000000000000000000000000000000000000000000000000000000000000000000000000000000000000000000000000000000000000000000000000000000000000000000000000000000000000000000000000000000000000000000000000000000000000000000000000000000000000000",
      "effectiveGasPrice": "0xc782e8c4"
    },
    {
      "transactionHash": "0xbe55f5b9c9e1268a511effdb531a9d666248ce9155575e09a8ee08b76d4c107f",
      "transactionIndex": "0x0",
      "blockHash": "0x92e0e973abb103c727e8bbace1033826408fa12129781c150fcd3625a8c511dd",
      "blockNumber": "0x6",
      "from": "0xf39Fd6e51aad88F6F4ce6aB8827279cffFb92266",
      "to": "0xdaE97900D4B184c5D2012dcdB658c008966466DD",
      "cumulativeGasUsed": "0x53b8",
      "gasUsed": "0x53b8",
      "contractAddress": null,
      "logs": [],
      "status": "0x1",
      "logsBloom": "0x00000000000000000000000000000000000000000000000000000000000000000000000000000000000000000000000000000000000000000000000000000000000000000000000000000000000000000000000000000000000000000000000000000000000000000000000000000000000000000000000000000000000000000000000000000000000000000000000000000000000000000000000000000000000000000000000000000000000000000000000000000000000000000000000000000000000000000000000000000000000000000000000000000000000000000000000000000000000000000000000000000000000000000000000000000000",
      "effectiveGasPrice": "0xc782e8c4"
    },
    {
      "transactionHash": "0xe6778f50b8f9b39a36aa7fd5afbced98e1690e456c968e5f005ae66450bad602",
      "transactionIndex": "0x0",
      "blockHash": "0xee2cca95b08f1e638486be1047146ee358412e70d771a6e1598aefde509ff6ab",
      "blockNumber": "0x7",
      "from": "0xf39Fd6e51aad88F6F4ce6aB8827279cffFb92266",
      "to": "0x238213078DbD09f2D15F4c14c02300FA1b2A81BB",
      "cumulativeGasUsed": "0x53b8",
      "gasUsed": "0x53b8",
      "contractAddress": null,
      "logs": [],
      "status": "0x1",
      "logsBloom": "0x00000000000000000000000000000000000000000000000000000000000000000000000000000000000000000000000000000000000000000000000000000000000000000000000000000000000000000000000000000000000000000000000000000000000000000000000000000000000000000000000000000000000000000000000000000000000000000000000000000000000000000000000000000000000000000000000000000000000000000000000000000000000000000000000000000000000000000000000000000000000000000000000000000000000000000000000000000000000000000000000000000000000000000000000000000000",
      "effectiveGasPrice": "0xc782e8c4"
    },
    {
      "transactionHash": "0x60253d2f3a58e7779e95ef35e4d8146f453e10e9ca2004f96d045ae9057d73ea",
      "transactionIndex": "0x0",
      "blockHash": "0xb285079a1fb1b7431080892d01b06564c41319f2bbbaa6eda751eff21208f8e3",
      "blockNumber": "0x8",
      "from": "0xf39Fd6e51aad88F6F4ce6aB8827279cffFb92266",
      "to": "0xd85BdcdaE4db1FAEB8eF93331525FE68D7C8B3f0",
      "cumulativeGasUsed": "0x5248",
      "gasUsed": "0x5248",
      "contractAddress": null,
      "logs": [],
      "status": "0x1",
      "logsBloom": "0x00000000000000000000000000000000000000000000000000000000000000000000000000000000000000000000000000000000000000000000000000000000000000000000000000000000000000000000000000000000000000000000000000000000000000000000000000000000000000000000000000000000000000000000000000000000000000000000000000000000000000000000000000000000000000000000000000000000000000000000000000000000000000000000000000000000000000000000000000000000000000000000000000000000000000000000000000000000000000000000000000000000000000000000000000000000",
      "effectiveGasPrice": "0xc782e8c4"
    },
    {
      "transactionHash": "0x7ec78fbee81e7baaf93e11e4c8bca4cb853bca0a859a2575cf04bc5e89680924",
      "transactionIndex": "0x1",
      "blockHash": "0xb285079a1fb1b7431080892d01b06564c41319f2bbbaa6eda751eff21208f8e3",
      "blockNumber": "0x8",
      "from": "0xf39Fd6e51aad88F6F4ce6aB8827279cffFb92266",
      "to": "0xDc82c0362A241Aa94d53546648EACe48C9773dAa",
      "cumulativeGasUsed": "0xa490",
      "gasUsed": "0x5248",
      "contractAddress": null,
      "logs": [],
      "status": "0x1",
      "logsBloom": "0x00000000000000000000000000000000000000000000000000000000000000000000000000000000000000000000000000000000000000000000000000000000000000000000000000000000000000000000000000000000000000000000000000000000000000000000000000000000000000000000000000000000000000000000000000000000000000000000000000000000000000000000000000000000000000000000000000000000000000000000000000000000000000000000000000000000000000000000000000000000000000000000000000000000000000000000000000000000000000000000000000000000000000000000000000000000",
      "effectiveGasPrice": "0xc782e8c4"
    }
  ],
  "libraries": [],
  "pending": [],
  "path": "/home/andy/teller/teller-protocol-v2/packages/contracts/broadcast/deploy.protocol.sol/31337/run-latest.json",
  "returns": {},
  "timestamp": 1676051380,
  "chain": 31337,
  "multi": false,
  "commit": "6e201e6"
}